:020000040800F2
:10000000E00C002045010008AF130008C5120008ED
:10001000AD130008070200081518000800000000D2
:10002000000000000000000000000000D3130008E2
:100030006302000800000000D1130008D513000877
:100040005F0100085F0100085F0100085F01000810
:100050005F0100085F0100085F0100085F01000800
:100060005F0100085F0100085F0100085F010008F0
:100070005F0100085F01000809020008150200087E
:100080005F0100085F0100085F0100085F010008D0
:100090005F0100085F0100085F0100085F010008C0
:1000A0005F0100085F0100085F0100085F010008B0
:1000B0005F0100085F0100085F0100085F010008A0
:1000C0005F0100085F0100085F0100085F01000890
:1000D0005F010008091800085F0100085F010008BF
:1000E0005F0100085F0100085F0100085F01000870
:1000F0005F0100085F0100085F0100085F01000860
:100100005F0100085F0100085F0100085F0100084F
:100110005F0100085F0100085F0100085F0100083F
:100120005F0100085F0100085F0100085F0100082F
:10013000DFF80CD000F02AF8004800473518000816
:10014000E00C00200648804706480047FEE7FEE72F
:10015000FEE7FEE7FEE7FEE7FEE7FEE7FEE7FEE777
:100160005114000831010008D2B201E000F8012B5F
:10017000491EFBD270470022F6E710B513460A4627
:1001800004461946FFF7F0FF204610BD064C074D08
:1001900006E0E06840F0010394E807009847103457
:1001A000AC42F6D3FFF7C8FF84180008A418000873
:1001B00070B58C1810F8015B15F0070301D110F829
:1001C000013B2A1106D110F8012B03E010F8016B56
:1001D00001F8016B5B1EF9D12B0705D40023521ED9
:1001E0000DD401F8013BFAE710F8013BCB1A921C41
:1001F00003E013F8015B01F8015B521EF9D5A1423F
:10020000D8D3002070BDFEE7014800F0C5B800005B
:100210009808002010B54FF480620449044801F0AA
:100220000FF8BDE81040034800F0B6B814040020F1
:10023000140800205408002030B590F840500124E4
:10024000AC40C56B6C60046863604368102B036846
:1002500003D099600068C26030BD9A600068C160D8
:1002600030BD7047704700002DE9F05F90F8211015
:100270000024022903D004218163012485E0016860
:100280000A6822F00E020A6001680A6822F0010280
:100290000A603F4E3E4FB215DFF8F4C0DFF8F09031
:1002A000DFF8ECA0DFF8E8B0DFF8E4E00168783FC1
:1002B00013011502ACF1640CA9F15009AAF13C0A32
:1002C000ABF1280BAEF1140E4FF48018B14227D9D0
:1002D000B9420ED0614512D049451DD0514518D0C4
:1002E000594518D0714501D1424615E0294EB14219
:1002F00001D1012210E0274E1436B14201D1102263
:100300000AE0244E2836B14206D0224A3C329142BD
:1003100001D11A4600E02A461E49091F0A602BE057
:10032000B94213D0614517D0494522D051451DD05F
:1003300059451DD0714501D142461AE0B14202D162
:100340004FF0807215E0134EB14201D1012210E04E
:10035000104E1436B14201D110220AE00D4E28365B
:10036000B14206D00B4A3C32914201D11A4600E01C
:100370002A46074980394A60012180F8211000216E
:1003800080F82010416B01B188472046BDE8F09FFE
:1003900080000240080402402DE9F05FC16B0A684A
:1003A00001680B68046C4FF0040808FA04F8844DE7
:1003B000844E854FDFF814C2DFF81492DFF814A2E0
:1003C000DFF814B2DFF814E218EA020F65D05FEA32
:1003D000437862D50A68920603D40A6822F00402C0
:1003E0000A60DFF8F0814FF48062016808F11408B8
:1003F00013011402414524D9A9420DD0B1420FD0B6
:10040000B9421AD0614515D0494515D0514501D1A1
:10041000120312E0594501D104220EE0714501D1C9
:1004200040220AE06D4D1435A94206D06B4A2832AD
:10043000914201D11A4600E022466749091F0A602D
:1004400029E0A94213D0B14215D0B94220D061456C
:100450001BD049451BD0514502D14FF4800217E013
:10046000414502D14FF0806212E0594501D104228A
:100470000EE0714501D140220AE0584D1435A942E1
:1004800006D0564A2832914201D11A4600E022464F
:100490004B4908394A60C16A71E04FF0020808FA16
:1004A00004F818EA020F70D05FEA83786DD50A6805
:1004B000920606D40A6822F00A020A60012180F836
:1004C0002110DFF810814FF40072016808F1140860
:1004D00013011402414524D9A9420DD0B1420FD0D5
:1004E000B9421AD0614515D0494515D0514501D1C1
:1004F000120312E0594501D102220EE0714501D1EB
:1005000020220AE0354D1435A94206D0334A28325C
:10051000914201D11A4600E022462F49091F0A6084
:1005200029E0A94213D0B14215D0B94220D061458B
:100530001BD049451BD0514502D14FF4001217E0A2
:10054000414502D14FF0007212E0594501D102221B
:100550000EE0714501D120220AE0204D1435A94258
:1005600006D01E4A2832914201D11A4600E02246A6
:10057000134908394A60002180F82010816A002957
:100580001CD0BDE8F05F0847FFE70825A5401542ED
:1005900014D01A0712D50A6822F00E020A6090F8E9
:1005A0004020C36B012101FA02F25A60816380F896
:1005B0002110002180F82010016BE0E7BDE8F09FDA
:1005C000080002401C00024030000240440002408B
:1005D000580002406C000240080402401C04024023
:1005E00030B560B11A4B026814219A4209D2194BF6
:1005F0001344B3FBF1F18900016417490AE00120BB
:1006000030BD134B5B421344B3FBF1F1890001642D
:100610000F490839C163022180F82110136843F69D
:10062000F0718B43F0E901142143D0E902452C43DA
:1006300021430469214344692143846921431943C7
:10064000116000214163012242770177084630BDE5
:1006500008040240F8FFFDBF0000024070B50446E8
:1006600090F82000002501280CD0012084F82000FB
:1006700094F821600020012E06D084F82000022585
:10068000284670BD022070BD022684F82160A06358
:100690002068066826F0010606602046FFF7CCFDBC
:1006A000E06A00282068016802D041F00E0106E0EF
:1006B00021F0040101602068016841F00A01016035
:1006C0002068016841F001010160D9E72DE9F84F88
:1006D000DFF8B8A100220AF1040B144601274FF0FD
:1006E0000F090BF1040E00BF0B6807FA04F52B404D
:1006F000AB4274D1DFF898C14E68A6EB0C08664592
:100700002BD00DDC032E34D005DC36B3012E19D0EE
:10071000022E2FD11BE0112E16D0122E2AD119E055
:10072000B8F5881F19D006DCB8F5803F15D0B8F5AC
:10073000801F1FD111E0B8F5001F0ED0B8F5041FBF
:1007400018D10AE0CA6815E0CA68121D12E0CA682A
:1007500008320FE0CA680C320CE08A682AB1012A1C
:100760004FF0080203D0456104E0042202E0056175
:1007700000E00022FF2B01D8064601E000F104064C
:100780004FEA840501D9A5F12005D6F800C009FA81
:1007900005F82CEA080C02FA05F54CEA050CC6F837
:1007A00000C04D68ED006AD53A4DAE6946F00106CD
:1007B000AE61AD6924F0030605F001050095364DE4
:1007C00006EB050CDCF80850A6074FEA167809FA84
:1007D00008F6B543314EB04202D100261AE04EE091
:1007E0002F4EB04201D1012614E02E4EB04201D16D
:1007F00002260FE02C4EB04201D103260AE02B4E18
:10080000B04201D1042605E0294EB04201D10526AF
:1008100000E0062606FA08F62E43CCF808604D687C
:10082000DAF80060ED03554601D51E4300E09E4313
:100830002E604D68AD0305D5DBF800601E43CBF894
:10084000006004E0DBF800509D43CBF800504D6899
:10085000DEF80060ED02754601D51E4300E09E43C0
:100860002E604D68AD0205D5084D0C352E681E432F
:100870002E6004E0054E0C3635689D433560641CDF
:10088000102CFFF431AFBDE8F88F000000040140E8
:10089000000011100010024000000140000801405B
:1008A000000C0140001001400014014000180140FC
:1008B000001C0140C2684A40C26070470AB1016131
:1008C00070470904FBE7000001488068704700009A
:1008D0000404002002488168027811448160704756
:1008E00004040020074810B5016841F010010160C0
:1008F000032000F077F8002000F006F800F024F85C
:10090000002010BD0020024070B50D4D04464FF48C
:100910007A712878B1FBF0F00A490968B1FBF0F070
:1009200000F000FB48B9102C07D200222146501ECF
:1009300000F038F800206C6070BD012070BD000030
:1009400004040020100400200E4808B5816941F01D
:1009500001018161816901F001010091C16941F0EA
:100960008051C161C06900F080500090052000F006
:1009700039F80548416821F0E06141F000714160BB
:1009800008BD0000001002400000014000F01F02FE
:10099000012191404009800000F1E020C0F80011E1
:1009A00070470000F0B40E4B1B680C46C3F30223E3
:1009B000C3F10705042D00D90425191D072901D20B
:1009C000002300E0DB1E012606FA05F1491E214046
:1009D00099409E40761E16403143F0BC00F0E8BCC2
:1009E0000CED00E0064900F0070208684FF6FF032F
:1009F000184040EA0220034A104308607047000094
:100A00000CED00E00000FA052DE9F047DFF8548115
:100A100005460E46D8F8000000F00700B0420CD2A0
:100A2000D8F8001021F007013143C8F80010D8F8B9
:100A3000000000F00700B0426FD128684A4C8107DF
:100A400012D5400703D5606840F4E0606060287804
:100A5000000703D5606840F4605060606068A96872
:100A600020F0F000084360602878C00744D0686830
:100A7000012816D02168022816D0890700294CDAEF
:100A8000616821F0030101436160FFF71DFF6968A0
:100A9000074641F2883001290ED00229814618D03C
:100AA00026E021688903E9E78901E7E7FFF70CFF02
:100AB000C11B494501D918E081466068C0F3810037
:100AC0000128F3D118E000BFFFF7FEFEC11B494526
:100AD0000BD86068C0F381000228F5D10CE000BF9C
:100AE000FFF7F2FEC11B494502D90320BDE8F0879C
:100AF000606810F00C0FF3D1D8F80010404601F0F8
:100B00000701B1420BD9016821F0070131430160AF
:100B1000006800F00700B04201D00120E6E7287825
:100B2000400705D56068E96820F4E060084360602C
:100B30002878000706D56068296920F4605040EAEB
:100B4000C100606000F036F86168084AC1F3031123
:100B5000515CC840064908600020FFF7D5FE002020
:100B6000C4E7000000200240001002406C1800089A
:100B7000100400200448054900684968044AC1F38C
:100B80000221515CC8407047100400200010024050
:100B90007C1800080448054900684968044AC1F304
:100BA000C221515CC8407047100400200010024070
:100BB0007C18000812A185B00FC98DE80F0014A0A1
:100BC000144A006804905168134801F00C03042B88
:100BD00010D0082B0ED1C1F38343C9031DF80300C5
:100BE0000AD5516804AAC1F34041515C0A4A5043F6
:100BF000B0FBF1F005B0704708494843FAE7000040
:100C000002030405060708090A0B0C0D0E0F10104D
:100C1000010200000010024000127A0000093D00AD
:100C20002DE9F84F04460078B94DC00748D06868F0
:100C3000C0F38100012807D06868C0F38100022852
:100C400009D16868C00306D52868800338D5606874
:100C500000286FD034E06068B0F5803F0BD010B151
:100C6000B0F5A02F11D0286820F4803028602868C3
:100C700020F4802002E0286840F48030286060681A
:100C800088B1FFF721FE064609E0286840F480207D
:100C90002860F0E7FFF718FE801B642875D82868E5
:100CA0008003F7D50CE0FFF70FFE064605E000BF16
:100CB000FFF70AFE801B6428F0D828688003F7D469
:100CC0002078944E80074FF001094FF000083BD583
:100CD000686810F00C0F07D06868C0F38100022824
:100CE00009D16868C00306D42868800714D5206934
:100CF00001281FD110E02069B0B1C6F80090FFF7BD
:100D0000E3FD074605E000BFFFF7DEFDC01B02283C
:100D1000C4D828688007F7D52868616920F0F800F2
:100D200040EAC10028600FE0C6F80080FFF7CCFD64
:100D3000074606E0E9E000BFFFF7C6FDC01B02283A
:100D400023D828688007F7D4207800072CD572486C
:100D5000A169D9B1C0F80090FFF7B6FD074604E0DD
:100D6000FFF7B2FDC01B02280FD8686A8007F7D5CD
:100D70006A484FF4FA510068B0FBF1F0009000BFF0
:100D80000098411E0091FAD20EE080E0C0F8008089
:100D9000FFF79AFD074604E0FFF796FDC01B022807
:100DA00075D8686A8007F7D42078400760D5E8696D
:100DB0000027C00008D4E86940F08050E861E86985
:100DC000012700F08050009055480168C90513D4F0
:100DD0000168834641F480710160FFF775FD82462A
:100DE00006E000BFFFF770FDA0EB0A0064284ED8B4
:100DF000DBF80000C005F5D5E06801280AD008B18D
:100E0000052813D0286A20F001002862286A20F003
:100E1000040002E0286A40F001002862E06841F224
:100E2000883B98B1FFF750FD82460BE0286A40F0FE
:100E300004002862EEE700BFFFF746FDA0EB0A01C1
:100E400059455AD8286A8007F6D50CE0FFF73CFDD3
:100E5000824605E0FFF738FDA0EB0A0159454CD862
:100E6000286A8007F6D41FB1E86920F08050E86155
:100E7000E06988B36968C1F38101022945D002287D
:100E8000C6F8608004D0FFF71FFD044638E034E068
:100E9000FFF71AFD074604E0FFF716FDC01B022806
:100EA0002BD828688001F7D4206AB0F5803F05D19F
:100EB0006868A16820F4003008436860D4E908013C
:100EC0000843696821F4741108436860C6F86090AB
:100ED000FFF7FAFC044606E015E000BFFFF7F4FC5C
:100EE000001B022809D828688001F7D50BE000BF55
:100EF000FFF7EAFC001B022802D90320BDE8F88FA7
:100F000028688001F4D40020F8E70120F6E700000B
:100F100000100240000042428004424210040020BF
:100F20000070004010B5401EB0F1807F01D3012059
:100F300010BD4FF0E02460610F21601700F038FA17
:100F40000020A06107202061002010BD7047000034
:100F500070B5026804461068D168536910F00F0F2D
:100F600050D003F0010501F4907635435DD0C207FF
:100F700005D0CA0503D5E26B42F00102E2634207E5
:100F800005D5DA0703D0E26B42F00202E263820782
:100F900005D5DA0703D0E26B42F00402E2630207F0
:100FA00005D5DA0703D0E26B42F00802E263E26B98
:100FB000002A33D0800604D5880602D5204600F0EA
:100FC000EEFA20684069E16BC0F38010090700D495
:100FD00028B3204600F0CCFA2068416949061AD5AA
:100FE000416921F040014161606BA0B11B4941633F
:100FF000606BFFF739F9002810D0606B416BBDE8DA
:1010000070400847830610D58B060ED52046BDE8F4
:10101000704000F0C4BA2046FFF798FF70BD20462C
:10102000FFF794FF0020E06370BD030606D50B06B2
:1010300004D52046BDE8704000F0B4BB4006F3D5AF
:101040004806F1D5D168204621F04001D160202129
:1010500084F8391000F034F970BD000099140008CC
:1010600070B5040004D094F83900002510B106E0F2
:10107000012070BD84F83850204600F023F8242069
:1010800084F839002068C16821F40051C16020460D
:1010900000F0D0FA2068016921F4904101612068D4
:1010A000416921F02A0141612068C16841F4005181
:1010B000C160E563202084F8390084F83A000020FC
:1010C00070BD0000F0B585B0002406460094019480
:1010D0000294039400682E49884256D12D488169B4
:1010E00041F480418161816901F480410491816909
:1010F00041F0040181618069274D00F004000490F3
:101100004FF4007000900220019003200390694684
:101110002846FFF7DBFA2815CDE900046946284682
:101120000294FFF7D3FA1E4D1C488027C5E900043E
:10113000C5E9024720202C61C5E905400002E861AD
:101140002846FFF74DFA08B1FFF78CF875636E6219
:10115000134D12484435143801C5102091C510486C
:1011600045F8104944306C61AC61EC61FFF738FA26
:1011700008B1FFF777F835630022114625206E622B
:10118000FFF710FC2520FFF701FC05B0F0BD0000C3
:1011900000380140001002400008014058000240A1
:1011A00054080020F8B5044690F83A0020283CD1B5
:1011B000C1B3BAB394F83800012836D0012084F8BE
:1011C0003800A162A2850025E563222084F83A0058
:1011D000636B17489862636B1648D862636B164856
:1011E0001863606B134645630846666B21680246C8
:1011F0003046091DFFF732FA206801684168009106
:1012000084F83850C16841F48071C1602068416938
:1012100041F0010141612068416941F040014161B3
:101220000020F8BDFFE70120FBE70220F9E70000FE
:10123000F31400082F150008A91400087047704720
:1012400070B5044690F83900202830D169B362B3F4
:1012500094F8380001282AD0012084F8380021624F
:10126000A284E2840025E563212084F83900236B01
:1012700010489862236B1048D862236B0F4818639C
:10128000206B134645632668206B321DFFF7E6F995
:1012900021686FF04000086084F838502068416988
:1012A00041F080014161002070BD012070BD02202D
:1012B00070BD00003915000867150008A914000862
:1012C00070477047FEE700000D4808B5416941F0DE
:1012D000010141614069002200F0010000901146C7
:1012E0000E20FFF75FFB0E20FFF750FB00220321CB
:1012F0000F20FFF757FBBDE808400F20FFF746BB64
:101300000010024070B586B0002418480094019483
:1013100002940394816941F010018161816901F0B7
:1013200010010491816941F020018161816901F01E
:1013300020010491816941F00401816180690C4EB2
:1013400000F004004FF40055049000222946304676
:10135000FFF7B4FA01200095CDE9010402200390C3
:1013600069463046FFF7B2F906B070BD0010024082
:10137000001001400C4810B50A4901604FF4E131FA
:101380004160002181600C22C160C0E904128161CA
:10139000C161FFF765FE002803D0BDE81040FEF7ED
:1013A00061BF10BD0038014014080020FEE77047FF
:1013B0000907090E002806DA00F00F0000F1E0200E
:1013C00080F8141D704700F1E02080F80014704789
:1013D0007047704710B5084C2088411C21801E289A
:1013E00006D14FF400510548FFF764FA0020208031
:1013F000BDE81040FFF76EBA000400200010014065
:1014000030B58FB028216846FEF7B5FE14210AA832
:10141000FEF7B1FE01210804CDE90010002402947A
:1014200002250491CDE907504FF4E0100990684679
:10143000FFF7F6FB0F20CDE90A056802CDE90C4065
:1014400002210AA80E94FFF7DFFA0FB030BD0000AA
:101450000D48016841F00101016041680B4A1140EB
:10146000416001680A4A11400160016821F480214D
:101470000160416821F4FE0141604FF41F01816069
:101480000449C00308607047001002400000FFF8E4
:10149000FFFFF6FE08ED00E010B5406A0021C185AF
:1014A000C184FFF753FD10BD70B5446A20684069E0
:1014B00094F83910C0F3C0100025212904D118B1C7
:1014C000E584204600F062F82068406994F83A10FC
:1014D000C0F38010222904D118B1E585204600F020
:1014E00047F8E06B40F01000E0632046FFF72EFD68
:1014F00070BD10B50146406A09680968890613D4B1
:101500000021C1850168CA6822F48072CA6001683E
:101510004A6922F001024A6101684A6922F04002E8
:101520004A61202180F83A10FFF788FE10BD10B5FF
:10153000406AFFF784FE10BD10B50146406A096895
:10154000096889060CD40021C18401684A6922F027
:1015500080024A610068C16841F04001C16010BD6D
:10156000FFF7AEFE10BD10B5406AFFF7AAFE10BD32
:101570000168CA6822F49072CA6001684A6922F060
:1015800001024A61202180F83A1070470168CA6858
:1015900022F0C002CA60202180F83910704710B5CF
:1015A00090F83A10222901D0022010BD8168B1F5CF
:1015B000805F11D00169002901681FD0496801F0DE
:1015C0007F03816A4A1C82620B70C18D491E090427
:1015D000090CC18518D02BE00269816A002A0268D3
:1015E000526805D0D2B20A80816A491C8162ECE758
:1015F000C2F308020A80816A891CF7E74A68816A97
:101600004B1C83620A70E0E70168CA6822F020027E
:10161000CA600168CA6822F48072CA6001684A69B7
:1016200022F001024A61202180F83A10FFF706FEFD
:10163000002010BD2DE9F041044600680169E26810
:1016400021F44051114301612169A0680843616997
:1016500008432168CA6841F20C639A430243CA6096
:1016600020684169A26921F44071114341614C49EC
:1016700020686425322688423CD1FFF78BFA00EBC4
:10168000C00101EB001061688900B0FBF1F7FFF7C2
:1016900081FA00EBC00101EB00106168B0468900DF
:1016A000B0FBF1F0B0FBF5F06FF01801484307EB29
:1016B000800106EB0110B0FBF5F000F0F006FFF73B
:1016C00069FA00EBC00101EB001061688900B0FB12
:1016D000F1F0B0FBF5F006EB0016FFF75BFA00EB5C
:1016E000C00101EB001061688900B0FBF1F7FFF762
:1016F00051FA3BE0FFF73EFA00EBC00101EB0010AE
:1017000061688900B0FBF1F7FFF734FA00EBC00124
:1017100001EB00106168B0468900B0FBF1F0B0FB4E
:10172000F5F06FF01801484307EB800106EB01105C
:10173000B0FBF5F000F0F006FFF71CFA00EBC0017B
:1017400001EB001061688900B0FBF1F0B0FBF5F02F
:1017500006EB0016FFF70EFA00EBC00101EB0010DC
:1017600061688900B0FBF1F7FFF704FA00EBC001F4
:1017700001EB001061688900B0FBF1F0B0FBF5F0FF
:101780006FF01801484307EB800108EB0110B0FB34
:10179000F5F0216800F00F0030448860BDE8F0816A
:1017A0000038014090F83910212901D002207047FB
:1017B0008168B1F5805F016A0BD04A1C0262026841
:1017C00009785160C18C491E0904090CC1840ED0EE
:1017D00017E009880268C1F3080151600169002916
:1017E000016A02D0491C0162ECE7891CFBE7016831
:1017F000CA6822F08002CA600068C16841F04001F6
:10180000C1600020704700000148FFF7A1BB000045
:1018100014080020FEE702E008C8121F08C1002AD1
:10182000FAD170477047002001E001C1121F002A61
:10183000FBD17047FFF756F8FFF7E2FDFFF762FDB7
:10184000FFF742FDFFF796FD012205490548FFF726
:10185000A9FC4FF4806204490248FFF7F1FCFEE75F
:1018600014040020140800200000002000000000E4
:101870000000000001020304060708090000000040
:1018800001020304A4180008000000201404000052
:10189000B0010008E018000814040020CC08000083
:1018A000261800086A2A01281053454E44494E471D
:1018B00020444154412055530B7810555341525404
:1018C00031207769746820444D412B05FF2A2A0D89
:1018D0000A01FF01FF01CF320182100400A24A0475
:0400000508000131BD
:00000001FF
